{
  "_format": "hh-sol-artifact-1",
  "contractName": "Random",
  "sourceName": "contracts/random/contracts/Random.sol",
  "abi": [
    {
      "inputs": [
        {
          "internalType": "uint256",
          "name": "guess",
          "type": "uint256"
        }
      ],
      "name": "solve",
      "outputs": [],
      "stateMutability": "nonpayable",
      "type": "function"
    },
    {
      "inputs": [],
      "name": "solved",
      "outputs": [
        {
          "internalType": "bool",
          "name": "",
          "type": "bool"
        }
      ],
      "stateMutability": "view",
      "type": "function"
    }
  ],
  "bytecode": "0x608060405260008060006101000a81548160ff02191690831515021790555034801561002a57600080fd5b506101938061003a6000396000f3fe608060405234801561001057600080fd5b50600436106100365760003560e01c8063799320bb1461003b578063b8b8d35a14610059575b600080fd5b610043610075565b60405161005091906100da565b60405180910390f35b610073600480360381019061006e9190610130565b610086565b005b60008054906101000a900460ff1681565b61008e6100b6565b811461009957600080fd5b60016000806101000a81548160ff02191690831515021790555050565b60006004905090565b60008115159050919050565b6100d4816100bf565b82525050565b60006020820190506100ef60008301846100cb565b92915050565b600080fd5b6000819050919050565b61010d816100fa565b811461011857600080fd5b50565b60008135905061012a81610104565b92915050565b600060208284031215610146576101456100f5565b5b60006101548482850161011b565b9150509291505056fea26469706673582212201a343f8b6aa492c91f6c369946ddbac44e86c7a12710ccf2a64540a0063c483264736f6c634300080f0033",
  "linkReferences": {},
  "deployedLinkReferences": {}
}