{
  "_format": "hh-sol-artifact-1",
  "contractName": "Setup",
  "sourceName": "contracts/rescue/contracts/Setup.sol",
  "abi": [
    {
      "inputs": [],
      "stateMutability": "payable",
      "type": "constructor"
    },
    {
      "inputs": [],
      "name": "isSolved",
      "outputs": [
        {
          "internalType": "bool",
          "name": "",
          "type": "bool"
        }
      ],
      "stateMutability": "view",
      "type": "function"
    },
    {
      "inputs": [],
      "name": "mcHelper",
      "outputs": [
        {
          "internalType": "contract MasterChefHelper",
          "name": "",
          "type": "address"
        }
      ],
      "stateMutability": "view",
      "type": "function"
    },
    {
      "inputs": [],
      "name": "weth",
      "outputs": [
        {
          "internalType": "contract WETH9",
          "name": "",
          "type": "address"
        }
      ],
      "stateMutability": "view",
      "type": "function"
    }
  ],
  "bytecode": "0x60a06040526040516100109061016d565b604051809103906000f08015801561002c573d6000803e3d6000fd5b5073ffffffffffffffffffffffffffffffffffffffff1660808173ffffffffffffffffffffffffffffffffffffffff168152505073c02aaa39b223fe8d0a0e5c4f27ead9083c756cc273ffffffffffffffffffffffffffffffffffffffff1663d0e30db0678ac7230489e800006040518263ffffffff1660e01b81526004016000604051808303818588803b1580156100c457600080fd5b505af11580156100d8573d6000803e3d6000fd5b505050505073c02aaa39b223fe8d0a0e5c4f27ead9083c756cc273ffffffffffffffffffffffffffffffffffffffff1663a9059cbb608051678ac7230489e800006040518363ffffffff1660e01b815260040161013692919061020a565b600060405180830381600087803b15801561015057600080fd5b505af1158015610164573d6000803e3d6000fd5b50505050610233565b6111ce806105cd83390190565b600073ffffffffffffffffffffffffffffffffffffffff82169050919050565b60006101a58261017a565b9050919050565b6101b58161019a565b82525050565b6000819050919050565b6000819050919050565b6000819050919050565b60006101f46101ef6101ea846101bb565b6101cf565b6101c5565b9050919050565b610204816101d9565b82525050565b600060408201905061021f60008301856101ac565b61022c60208301846101fb565b9392505050565b6080516103796102546000396000818160ed015261017101526103796000f3fe608060405234801561001057600080fd5b50600436106100415760003560e01c80633fc8cef31461004657806364d98f6e14610064578063fdcc2a6e14610082575b600080fd5b61004e6100a0565b60405161005b9190610212565b60405180910390f35b61006c6100b8565b6040516100799190610248565b60405180910390f35b61008a61016f565b6040516100979190610284565b60405180910390f35b73c02aaa39b223fe8d0a0e5c4f27ead9083c756cc281565b60008073c02aaa39b223fe8d0a0e5c4f27ead9083c756cc273ffffffffffffffffffffffffffffffffffffffff166370a082317f00000000000000000000000000000000000000000000000000000000000000006040518263ffffffff1660e01b815260040161012891906102c0565b602060405180830381865afa158015610145573d6000803e3d6000fd5b505050506040513d601f19601f820116820180604052508101906101699190610316565b14905090565b7f000000000000000000000000000000000000000000000000000000000000000081565b600073ffffffffffffffffffffffffffffffffffffffff82169050919050565b6000819050919050565b60006101d86101d36101ce84610193565b6101b3565b610193565b9050919050565b60006101ea826101bd565b9050919050565b60006101fc826101df565b9050919050565b61020c816101f1565b82525050565b60006020820190506102276000830184610203565b92915050565b60008115159050919050565b6102428161022d565b82525050565b600060208201905061025d6000830184610239565b92915050565b600061026e826101df565b9050919050565b61027e81610263565b82525050565b60006020820190506102996000830184610275565b92915050565b60006102aa82610193565b9050919050565b6102ba8161029f565b82525050565b60006020820190506102d560008301846102b1565b92915050565b600080fd5b6000819050919050565b6102f3816102e0565b81146102fe57600080fd5b50565b600081519050610310816102ea565b92915050565b60006020828403121561032c5761032b6102db565b5b600061033a84828501610301565b9150509291505056fea2646970667358221220190e98829ff57f9f3e12439d2e71ab62888dec7f2be9f623231d0870a32d91d264736f6c63430008100033608060405234801561001057600080fd5b506111ae806100206000396000f3fe608060405234801561001057600080fd5b50600436106100415760003560e01c806303e1961814610046578063f887ea4014610062578063fb1db27814610080575b600080fd5b610060600480360381019061005b91906109c6565b61009e565b005b61006a6104f1565b6040516100779190610a8c565b60405180910390f35b610088610509565b6040516100959190610ac8565b60405180910390f35b6100dc6040518060400160405280600881526020017f3e3e3e3e3e206767000000000000000000000000000000000000000000000000815250610521565b600073c2edad668740f1aa35e4d8f227fb8e17dca888cd73ffffffffffffffffffffffffffffffffffffffff16631526fe27866040518263ffffffff1660e01b815260040161012b9190610af2565b6080604051808303816000875af115801561014a573d6000803e3d6000fd5b505050506040513d601f19601f8201168201806040525081019061016e9190610b37565b505050905060008173ffffffffffffffffffffffffffffffffffffffff16630dfe16816040518163ffffffff1660e01b81526004016020604051808303816000875af11580156101c2573d6000803e3d6000fd5b505050506040513d601f19601f820116820180604052508101906101e69190610b9e565b905060008273ffffffffffffffffffffffffffffffffffffffff1663d21220a76040518163ffffffff1660e01b81526004016020604051808303816000875af1158015610237573d6000803e3d6000fd5b505050506040513d601f19601f8201168201806040525081019061025b9190610b9e565b90508573ffffffffffffffffffffffffffffffffffffffff1663095ea7b373d9e1ce17f2641f24ae83637ab66a2cca9c378b9f7fffffffffffffffffffffffffffffffffffffffffffffffffffffffffffffffff6040518363ffffffff1660e01b81526004016102cc929190610bda565b600060405180830381600087803b1580156102e657600080fd5b505af11580156102fa573d6000803e3d6000fd5b505050508173ffffffffffffffffffffffffffffffffffffffff1663095ea7b373d9e1ce17f2641f24ae83637ab66a2cca9c378b9f7fffffffffffffffffffffffffffffffffffffffffffffffffffffffffffffffff6040518363ffffffff1660e01b815260040161036d929190610bda565b600060405180830381600087803b15801561038757600080fd5b505af115801561039b573d6000803e3d6000fd5b505050508073ffffffffffffffffffffffffffffffffffffffff1663095ea7b373d9e1ce17f2641f24ae83637ab66a2cca9c378b9f7fffffffffffffffffffffffffffffffffffffffffffffffffffffffffffffffff6040518363ffffffff1660e01b815260040161040e929190610bda565b600060405180830381600087803b15801561042857600080fd5b505af115801561043c573d6000803e3d6000fd5b505050508573ffffffffffffffffffffffffffffffffffffffff166323b872dd3330886040518463ffffffff1660e01b815260040161047d93929190610c03565b600060405180830381600087803b15801561049757600080fd5b505af11580156104ab573d6000803e3d6000fd5b505050506104c686836002886104c19190610c69565b6105ba565b6104dd86826002886104d89190610c69565b6105ba565b6104e882828661074b565b50505050505050565b73d9e1ce17f2641f24ae83637ab66a2cca9c378b9f81565b73c2edad668740f1aa35e4d8f227fb8e17dca888cd81565b6105b7816040516024016105359190610d2a565b6040516020818303038152906040527f41304fac000000000000000000000000000000000000000000000000000000007bffffffffffffffffffffffffffffffffffffffffffffffffffffffff19166020820180517bffffffffffffffffffffffffffffffffffffffffffffffffffffffff83818316178352505050506108f5565b50565b6000600267ffffffffffffffff8111156105d7576105d6610d4c565b5b6040519080825280602002602001820160405280156106055781602001602082028036833780820191505090505b509050838160008151811061061d5761061c610d7b565b5b602002602001019073ffffffffffffffffffffffffffffffffffffffff16908173ffffffffffffffffffffffffffffffffffffffff1681525050828160018151811061066c5761066b610d7b565b5b602002602001019073ffffffffffffffffffffffffffffffffffffffff16908173ffffffffffffffffffffffffffffffffffffffff168152505073d9e1ce17f2641f24ae83637ab66a2cca9c378b9f73ffffffffffffffffffffffffffffffffffffffff166338ed17398360008430426040518663ffffffff1660e01b81526004016106fc959493929190610ea3565b6000604051808303816000875af115801561071b573d6000803e3d6000fd5b505050506040513d6000823e3d601f19601f820116820180604052508101906107449190611016565b5050505050565b600073d9e1ce17f2641f24ae83637ab66a2cca9c378b9f73ffffffffffffffffffffffffffffffffffffffff1663e8e3370085858773ffffffffffffffffffffffffffffffffffffffff166370a08231306040518263ffffffff1660e01b81526004016107b8919061105f565b602060405180830381865afa1580156107d5573d6000803e3d6000fd5b505050506040513d601f19601f820116820180604052508101906107f9919061107a565b8773ffffffffffffffffffffffffffffffffffffffff166370a08231306040518263ffffffff1660e01b8152600401610832919061105f565b602060405180830381865afa15801561084f573d6000803e3d6000fd5b505050506040513d601f19601f82011682018060405250810190610873919061107a565b60008033426040518963ffffffff1660e01b815260040161089b9897969594939291906110a7565b6060604051808303816000875af11580156108ba573d6000803e3d6000fd5b505050506040513d601f19601f820116820180604052508101906108de9190611125565b92505050818110156108ef57600080fd5b50505050565b60008151905060006a636f6e736f6c652e6c6f679050602083016000808483855afa5050505050565b6000604051905090565b600080fd5b600080fd5b6000819050919050565b61094581610932565b811461095057600080fd5b50565b6000813590506109628161093c565b92915050565b600073ffffffffffffffffffffffffffffffffffffffff82169050919050565b600061099382610968565b9050919050565b6109a381610988565b81146109ae57600080fd5b50565b6000813590506109c08161099a565b92915050565b600080600080608085870312156109e0576109df610928565b5b60006109ee87828801610953565b94505060206109ff878288016109b1565b9350506040610a1087828801610953565b9250506060610a2187828801610953565b91505092959194509250565b6000819050919050565b6000610a52610a4d610a4884610968565b610a2d565b610968565b9050919050565b6000610a6482610a37565b9050919050565b6000610a7682610a59565b9050919050565b610a8681610a6b565b82525050565b6000602082019050610aa16000830184610a7d565b92915050565b6000610ab282610a59565b9050919050565b610ac281610aa7565b82525050565b6000602082019050610add6000830184610ab9565b92915050565b610aec81610932565b82525050565b6000602082019050610b076000830184610ae3565b92915050565b600081519050610b1c8161099a565b92915050565b600081519050610b318161093c565b92915050565b60008060008060808587031215610b5157610b50610928565b5b6000610b5f87828801610b0d565b9450506020610b7087828801610b22565b9350506040610b8187828801610b22565b9250506060610b9287828801610b22565b91505092959194509250565b600060208284031215610bb457610bb3610928565b5b6000610bc284828501610b0d565b91505092915050565b610bd481610988565b82525050565b6000604082019050610bef6000830185610bcb565b610bfc6020830184610ae3565b9392505050565b6000606082019050610c186000830186610bcb565b610c256020830185610bcb565b610c326040830184610ae3565b949350505050565b7f4e487b7100000000000000000000000000000000000000000000000000000000600052601260045260246000fd5b6000610c7482610932565b9150610c7f83610932565b925082610c8f57610c8e610c3a565b5b828204905092915050565b600081519050919050565b600082825260208201905092915050565b60005b83811015610cd4578082015181840152602081019050610cb9565b60008484015250505050565b6000601f19601f8301169050919050565b6000610cfc82610c9a565b610d068185610ca5565b9350610d16818560208601610cb6565b610d1f81610ce0565b840191505092915050565b60006020820190508181036000830152610d448184610cf1565b905092915050565b7f4e487b7100000000000000000000000000000000000000000000000000000000600052604160045260246000fd5b7f4e487b7100000000000000000000000000000000000000000000000000000000600052603260045260246000fd5b6000819050919050565b6000610dcf610dca610dc584610daa565b610a2d565b610932565b9050919050565b610ddf81610db4565b82525050565b600081519050919050565b600082825260208201905092915050565b6000819050602082019050919050565b610e1a81610988565b82525050565b6000610e2c8383610e11565b60208301905092915050565b6000602082019050919050565b6000610e5082610de5565b610e5a8185610df0565b9350610e6583610e01565b8060005b83811015610e96578151610e7d8882610e20565b9750610e8883610e38565b925050600181019050610e69565b5085935050505092915050565b600060a082019050610eb86000830188610ae3565b610ec56020830187610dd6565b8181036040830152610ed78186610e45565b9050610ee66060830185610bcb565b610ef36080830184610ae3565b9695505050505050565b600080fd5b610f0b82610ce0565b810181811067ffffffffffffffff82111715610f2a57610f29610d4c565b5b80604052505050565b6000610f3d61091e565b9050610f498282610f02565b919050565b600067ffffffffffffffff821115610f6957610f68610d4c565b5b602082029050602081019050919050565b600080fd5b6000610f92610f8d84610f4e565b610f33565b90508083825260208201905060208402830185811115610fb557610fb4610f7a565b5b835b81811015610fde5780610fca8882610b22565b845260208401935050602081019050610fb7565b5050509392505050565b600082601f830112610ffd57610ffc610efd565b5b815161100d848260208601610f7f565b91505092915050565b60006020828403121561102c5761102b610928565b5b600082015167ffffffffffffffff81111561104a5761104961092d565b5b61105684828501610fe8565b91505092915050565b60006020820190506110746000830184610bcb565b92915050565b6000602082840312156110905761108f610928565b5b600061109e84828501610b22565b91505092915050565b6000610100820190506110bd600083018b610bcb565b6110ca602083018a610bcb565b6110d76040830189610ae3565b6110e46060830188610ae3565b6110f16080830187610dd6565b6110fe60a0830186610dd6565b61110b60c0830185610bcb565b61111860e0830184610ae3565b9998505050505050505050565b60008060006060848603121561113e5761113d610928565b5b600061114c86828701610b22565b935050602061115d86828701610b22565b925050604061116e86828701610b22565b915050925092509256fea26469706673582212206a9797580bca8fb4795948312c0ac9c161a672a7b2f4330361ab3f6c669bcc3864736f6c63430008100033",
  "linkReferences": {},
  "deployedLinkReferences": {}
}